:100000000C9462000C948A000C948A000C948A0070
:100010000C948A000C948A000C948A000C948A0038
:100020000C948A000C948A000C948A000C948A0028
:100030000C948A000C948A000C948A000C948A0018
:100040000C9429030C948A000C948A000C948A0066
:100050000C948A000C948A000C948A000C948A00F8
:100060000C948A000C948A000000000024002700F1
:100070002A0000000000250028002B0000000000DE
:1000800023002600290004040404040404040202DA
:100090000202020203030303030301020408102007
:1000A0004080010204081020010204081020000012
:1000B0000008000201000003040700000000000027
:1000C00000001D0511241FBECFEFD8E0DEBFCDBF5D
:1000D00011E0A0E0B1E0E6E3F0E102C005900D928E
:1000E000A238B107D9F721E0A2E8B1E001C01D9222
:1000F000A33CB207E1F710E0C2E6D0E004C02197CC
:10010000FE010E943B05C136D107C9F70E94730367
:100110000C9419080C940000833081F028F481308D
:1001200099F08230A9F008958730A9F08830C9F09D
:100130008430B1F4809180008F7D03C08091800075
:100140008F7780938000089584B58F7784BD08955C
:1001500084B58F7DFBCF8091B0008F778093B00006
:1001600008958091B0008F7DF9CFCF93DF93282F32
:1001700030E0F901E255FF4F8491F901E656FF4F57
:10018000D491F901EA57FF4FC491CC23A1F081111A
:100190000E948C00EC2FF0E0EE0FFF1FE458FF4FA1
:1001A000A591B491EC91ED2381E090E009F480E019
:1001B000DF91CF91089580E090E0FACF1F93CF9325
:1001C000DF93282F30E0F901E255FF4F8491F901C8
:1001D000E656FF4FD491F901EA57FF4FC491CC2363
:1001E000A9F0162F81110E948C00EC2FF0E0EE0F89
:1001F000FF1FEE58FF4FA591B4918FB7F894EC9183
:10020000111108C0D095DE23DC938FBFDF91CF9111
:100210001F910895DE2BF8CFCF93DF9390E0FC0180
:10022000E656FF4F24918A579F4FFC018491882303
:10023000D1F090E0880F991FFC01E859FF4FA5917C
:10024000B491FC01EE58FF4FC591D49161110EC0DD
:100250009FB7F8948C91E22FE0958E238C932881A0
:10026000E223E8839FBFDF91CF9108958FB7F89481
:10027000EC91E22BEC938FBFF6CF3FB7F8948091CF
:10028000A7019091A801A091A901B091AA0126B55A
:10029000A89B05C02F3F19F00196A11DB11D3FBFBE
:1002A000BA2FA92F982F8827BC01CD01620F711D8D
:1002B000811D911D42E0660F771F881F991F4A9587
:1002C000D1F708958F929F92AF92BF92CF92DF9213
:1002D000EF92FF924B015C010E943D016B017C019A
:1002E0000E943D016C197D098E099F09683E73408B
:1002F00081059105A8F321E0821A9108A108B108AF
:1003000088EEC80E83E0D81EE11CF11C8114910414
:10031000A104B10429F7FF90EF90DF90CF90BF9038
:10032000AF909F908F900895AF92BF92CF92DF923F
:10033000EF92FF920F931F93CF93DF936C017B019A
:100340008B01040F151FEB015E01AE18BF08C0172B
:10035000D10759F06991D601ED91FC910190F0819E
:10036000E02DC6010995892B79F7C501DF91CF9161
:100370001F910F91FF90EF90DF90CF90BF90AF90C3
:100380000895089590E080E00895FC010190002018
:10039000E9F73197AF01481B590BBC018BEA91E09B
:1003A0000C949401CF93DF93EC0160E08E810E9466
:1003B000DE0061E08E810E94DE0060E08E810E949E
:1003C000DE008BE891E00197F1F7DF91CF9108957E
:1003D000CF92DF92EF92FF920F931F93CF93DF9311
:1003E0006C017C0187E0E80EF11CD0E0C0E0062F34
:1003F00010E0B8010C2E02C0759567950A94E2F7DB
:100400006170F70181917F010E94DE002196C43066
:10041000D10579F7C601DF91CF911F910F91FF9020
:10042000EF90DF90CF900C94D201CF92DF92EF92B9
:10043000FF920F931F93CF93DF93EC01F62E642F5F
:100440008C810E94DE008D818F3F19F060E00E9458
:10045000DE000F2D10E08F8584FF25C06E0187E040
:10046000C80ED11CF12CE12CB8010E2C02C07595E0
:1004700067950A94E2F76170F60181916F010E941D
:10048000DE00FFEFEF1AFF0A88E0E816F10461F7DB
:10049000CE01DF91CF911F910F91FF90EF90DF90F0
:1004A000CF900C94D201B80184E0759567958A9538
:1004B000E1F7CE010E94E8016F2DCE01DF91CF91CF
:1004C0001F910F91FF90EF90DF90CF900C94E80177
:1004D00040E0682F8BEA91E00C941502CF93DF93F4
:1004E000823029F49091BA0198609093BA01809378
:1004F000BE011092BF0180E48093C00180E180932F
:10050000C10180E58093C20161E08091AF010E944A
:100510000C018091B0018F3F19F061E00E940C0145
:1005200061E08091B1010E940C01CBEAD1E09E0113
:100530002B5A31408091BA0184FD0BC084E090E0D9
:1005400021962817390744F461E08E810E940C013E
:10055000EECF88E090E0F4CF8BE39DE00197F1F7D8
:1005600060E08091AF010E94DE0060E08091B10107
:100570000E94DE008091B0018F3F19F060E00E9480
:10058000DE008091BA0184FD39C063E08BEA91E01E
:100590000E94E801CBE4D6E4CE010197F1F763E0D5
:1005A0008BEA91E00E94E8012197F1F763E08BEA82
:1005B00091E00E94E80183E592E00197F1F762E0A3
:1005C0008BEA91E00E94E8018091BA0180620E946A
:1005D000680284E08093BB018CE00E94680281E0A5
:1005E0000E9468028BE39FE10197F1F782E080931C
:1005F000BC0186E0DF91CF910C94680280620E947A
:1006000068028BE496E40197F1F78091BA01806269
:100610000E94680283E592E00197F1F78091BA01A8
:1006200080620E946802D0CF9091BE01691710F0DD
:100630006FEF690FE62FF0E0E555FE4F9489890FC3
:1006400080680C94680241E00E94150281E090E00D
:1006500008951F920F920FB60F9211242F933F937C
:100660008F939F93AF93BF938091A3019091A40127
:10067000A091A501B091A6013091A20123E0230F22
:100680002D3758F50196A11DB11D2093A20180932D
:10069000A3019093A401A093A501B093A60180911A
:1006A000A7019091A801A091A901B091AA0101967A
:1006B000A11DB11D8093A7019093A801A093A9014A
:1006C000B093AA01BF91AF919F918F913F912F91CC
:1006D0000F900FBE0F901F90189526E8230F0296DB
:1006E000A11DB11DD2CFCF93DF93CDB7DEB72C972D
:1006F0000FB6F894DEBF0FBECDBF789484B582608C
:1007000084BD84B5816084BD85B5826085BD85B5B5
:10071000816085BD80916E00816080936E00109233
:1007200081008091810082608093810080918100AE
:10073000816080938100809180008160809380003F
:100740008091B10084608093B1008091B00081609D
:100750008093B00080917A00846080937A008091C9
:100760007A00826080937A0080917A008160809321
:100770007A0080917A00806880937A001092C1009C
:1007800010E060E0812F0E940C011F5F1A30C9F752
:1007900061E08AE00E940C0161E08BE00E940C01A4
:1007A00061E08CE00E940C0182E00E946E0280E217
:1007B00091E00E94C5019E012F5F3F4F690161E3F7
:1007C000262E61E0362E7AE2472E71E0572EE0E0C9
:1007D0006E2EE0E07E2E80E00E94B500892B99F518
:1007E00081E00E94B500892B71F582E00E94B5007E
:1007F000892B49F583E00E94B500892B21F584E01F
:100800000E94B500892BF9F485E00E94B500892B80
:10081000D1F486E00E94B500892BA9F487E00E94FC
:10082000B500892B81F488E00E94B500892B59F42A
:1008300089E00E94B500892B31F46114710459F2EA
:100840000E940000C8CF0091A0011091A1010430C6
:1008500011050CF088C04CE0842E41E0942E52E843
:10086000A52E51E0B52EF12CE12CF4018081F2E0AF
:100870008F0E911C0E94B500F501009709F45FC02E
:10088000208131818217930709F45BC0F701EE0FD5
:10089000FF1FEE57FE4F91838083FF92EF925F928E
:1008A0004F92DF92CF920E94410561E080E00E946A
:1008B0001403C6010E94C5010F900F900F900F9076
:1008C0000F900F90EB86FC86000F111FF801E85681
:1008D000FE4F6B8560838C85818361E086E00E949A
:1008E00014038091A0019091A101FC01EE0FFF1F64
:1008F000E856FE4F21812F9320812F9301969F93DD
:100900008F933F922F92DF92CF920E944105C601B2
:100910000E94C5010FB6F894DEBF0FBECDBF60EBDD
:1009200074E080E090E00E9462018091A0019091CB
:10093000A10101969093A1018093A0014CCF118257
:10094000108262E370E080E090E00E946201FFEFBD
:10095000EF1AFF0A22E0A20EB11C3AE0E316F104FE
:1009600009F083CFB1CF0430110509F05DC061E01B
:1009700086E00E9414038091960190919701E8E926
:10098000F1E0219131916AE0689FA001699F500DCB
:100990001124CA01820F931F20EA31E02E173F076E
:1009A00081F790939701809396019F938F938CE3A7
:1009B00091E09F938F93DF92CF920E944105C601F1
:1009C0000E94C50162E370E080E090E00E94620155
:1009D0000F900F900F900F900F900F9080919601B5
:1009E0009091970161E087359440A1F486E00E94E0
:1009F000140383E491E00E94C50160E080E00E945E
:100A000014038FE491E00E94C50161E08AE00E9436
:100A1000DE0085CF86E00E94140384E691E00E9408
:100A2000C50161E08BE0F3CF60E080E00E94140339
:100A30008FE691E00E94C50172CFEBEAF1E01382EC
:100A4000128284E091E09183808383E184838FEF3D
:100A5000858382E1868381E1878380E180878FE0DF
:100A600081878EE082871386148615861686178600
:100A700081E00C946E02EE0FFF1F0590F491E02DC3
:100A80000994AEE0B0E0E7E4F5E00C94F0070D89DE
:100A90001E8986E08C831A8309838FEF9FE79E83EC
:100AA0008D83AE01475E5F4F6F89788DCE010196D1
:100AB0000E9464052F813885020F131FF8011082F0
:100AC0002E96E4E00C940C08ABE0B0E0EAE6F5E02A
:100AD0000C94E2077C013B018A01FC01178216821B
:100AE000838181FFC8C1CE0101965C01F70193812A
:100AF000F30193FD859193FF81913F01882309F4D0
:100B000053C1853239F493FD859193FF81913F0163
:100B1000853229F4B70190E00E945407E7CF912C69
:100B2000212C312CFFE1F31538F08B3211F190F4C8
:100B3000803209F1833229F137FC3CC020ED280FC7
:100B40002A3050F536FE20C08AE0989E200D1124F0
:100B5000922E06C08D3291F0803371F7689430F890
:100B6000F30193FD859193FF81913F018111DACFCC
:100B700021C0689431F8689432F8F2CF689433F861
:100B8000EFCF689434F8ECCFEAE02E9E200D1124CC
:100B9000222E689435F8E4CF8E3229F436FC04C155
:100BA000689436F8DDCF8C3619F4689437F8D8CFCE
:100BB0008836B1F2982F9F7D95549330E0F08336BC
:100BC000A1F18337C1F1833509F063C02801F2E058
:100BD0004F0E511CF801C080D180692D70E036FCA9
:100BE00002C06FEF7FEFC6010E943E074C01689480
:100BF00037F882010AC00C5F1F4FFFE3F983882496
:100C00008394912C6501E89437F833FE2DC0522C63
:100C10008114910471F5552009F468CFB70180E281
:100C200090E00E9454075A94F6CFF801808189839E
:100C30000E5F1F4FE4CF2801F2E04F0E511CF80168
:100C4000C080D180692D70E036FC02C06FEF7FEF6D
:100C5000C6010E9449074C018201D5CFB70180E24D
:100C600090E00E9454072A942814190409F0B0F760
:100C7000CECFF60137FC859137FE81916F01B70128
:100C800090E00E94540751105A94F1E08F1A910895
:100C9000BFCF843619F0893609F077C0F80137FEE6
:100CA0006BC060817181828193810C5F1F4FF32D36
:100CB000FF763F2E97FF09C09095809570956195BE
:100CC0007F4F8F4F9F4F689437F82AE030E0A5019F
:100CD0000E948407C82ECA188C2C432C36FE0CC0E8
:100CE000E89440F8C91440F434FE05C032FC03C057
:100CF000F32DFE7E4F2E892C44FE95C0FE01EC0D97
:100D0000F11D8081803309F087C0242D297E422E79
:100D1000842D8870582E43FC95C040FE8FC09C2CBB
:100D2000821418F42C0C922C981844FE91C0B70130
:100D300080E390E00E94540742FE09C088E790E0FB
:100D400041FE02C088E590E0B7010E945407C91433
:100D500008F48AC0CA94D12C9FEFC91AD90ACA0CC8
:100D6000DB1CF60182916F01B70190E00E945407ED
:100D7000AC14BD04B1F74FCF60817181072E000C18
:100D8000880B990B0E5F1F4F92CFD32CE894D4F8A9
:100D90002AE030E0853739F1232D297FD22E8F3696
:100DA00001F148F48835A9F0F701868197812B96E7
:100DB000E2E10C94FE07803749F08837A9F7D4FEAA
:100DC00002C06894D2F820E130E00DC06894D4F8F5
:100DD000F6CF34FE03C0822F8660D82E20E132E0A9
:100DE00002C028E030E0F801D7FE0FC060817181B9
:100DF000828193810C5F1F4FA5010E948407C82E3A
:100E0000CA183D2CE89437F867CF6081718190E073
:100E100080E00E5F1F4FF0CF42FC02C0839478CF7A
:100E20008394839475CF842D867809F471CFF6CF9F
:100E3000B70180E290E00E94540783948214C0F3CB
:100E4000512C73CF522C5818821408F46ECFF8CF5F
:100E5000842D867809F47BCF8BE241FE80E247FC4B
:100E60008DE2B70190E071CFB70180E390E00E947E
:100E700054079A946CCF8FEF9FEF99CFFC010590A8
:100E8000615070400110D8F7809590958E0F9F1F8C
:100E90000895FC016150704001900110D8F78095D1
:100EA00090958E0F9F1F08950F931F93CF93DF93FD
:100EB000182F092FEB018B8181FD09C01FEF0FEF68
:100EC000812F902FDF91CF911F910F91089582FF75
:100ED00014C02E813F818C819D81281739073CF4F5
:100EE000E881F981CF0101969983888310838E81EF
:100EF0009F8101969F838E83E3CFE885F985812FBB
:100F00000995892BA1F3DACFFA01AA27283051F1EC
:100F1000203181F1E8946F936E7F6E5F7F4F8F4F2A
:100F20009F4FAF4FB1E03ED0B4E03CD0670F781F89
:100F3000891F9A1FA11D680F791F8A1F911DA11D6E
:100F40006A0F711D811D911DA11D20D009F46894A7
:100F50003F912AE0269F11243019305D3193DEF64F
:100F6000CF010895462F4770405D4193B3E00FD005
:100F7000C9F7F6CF462F4F70405D4A3318F0495DF0
:100F800031FD4052419302D0A9F7EACFB4E0A695D3
:100F90009795879577956795BA95C9F700976105F5
:100FA000710508959B01AC010A2E0694579547954B
:100FB00037952795BA95C9F7620F731F841F951F40
:100FC000A01D08952F923F924F925F926F927F9251
:100FD0008F929F92AF92BF92CF92DF92EF92FF9249
:100FE0000F931F93CF93DF93CDB7DEB7CA1BDB0BF5
:100FF0000FB6F894DEBF0FBECDBF09942A8839889A
:1010000048885F846E847D848C849B84AA84B984A0
:10101000C884DF80EE80FD800C811B81AA81B981AC
:10102000CE0FD11D0FB6F894DEBF0FBECDBFED01C0
:061030000895F894FFCFC3
:101036000000000023039401C201C1010000010069
:10104600020003000400050006000700080009006E
:10105600454E5445522050494E004B45593A256459
:1010660000444947495425642D25640050494E3AA9
:101076002564002D2D434F52524543542D2D0041DA
:10108600434345535320415554484F52495A4544CA
:10109600202121002D214641494C4544212D004D5A
:1010A6004158204C494D49542052454143484544F6
:0210B600000038
:00000001FF
